{
  "contractName": "AssetManager",
  "abi": [
    {
      "constant": true,
      "inputs": [],
      "name": "master_owner",
      "outputs": [
        {
          "name": "",
          "type": "address"
        }
      ],
      "payable": false,
      "stateMutability": "view",
      "type": "function"
    },
    {
      "constant": true,
      "inputs": [],
      "name": "assetCount",
      "outputs": [
        {
          "name": "",
          "type": "uint256"
        }
      ],
      "payable": false,
      "stateMutability": "view",
      "type": "function"
    },
    {
      "inputs": [
        {
          "name": "_um",
          "type": "address"
        }
      ],
      "payable": false,
      "stateMutability": "nonpayable",
      "type": "constructor"
    },
    {
      "anonymous": false,
      "inputs": [
        {
          "indexed": false,
          "name": "status",
          "type": "int8"
        },
        {
          "indexed": false,
          "name": "statement",
          "type": "string"
        }
      ],
      "name": "ActionDone",
      "type": "event"
    },
    {
      "constant": false,
      "inputs": [
        {
          "name": "_name",
          "type": "string"
        },
        {
          "name": "_kind",
          "type": "uint8"
        }
      ],
      "name": "createAsset",
      "outputs": [
        {
          "name": "newIndex",
          "type": "uint256"
        }
      ],
      "payable": false,
      "stateMutability": "nonpayable",
      "type": "function"
    },
    {
      "constant": true,
      "inputs": [
        {
          "name": "_aid",
          "type": "uint256"
        }
      ],
      "name": "getAsset",
      "outputs": [
        {
          "name": "_name",
          "type": "string"
        },
        {
          "name": "_owner",
          "type": "address"
        },
        {
          "name": "_kind",
          "type": "uint8"
        }
      ],
      "payable": false,
      "stateMutability": "view",
      "type": "function"
    },
    {
      "constant": false,
      "inputs": [
        {
          "name": "_aid",
          "type": "uint256"
        }
      ],
      "name": "lockAsset",
      "outputs": [],
      "payable": false,
      "stateMutability": "nonpayable",
      "type": "function"
    },
    {
      "constant": false,
      "inputs": [
        {
          "name": "_aid",
          "type": "uint256"
        }
      ],
      "name": "unlockAsset",
      "outputs": [],
      "payable": false,
      "stateMutability": "nonpayable",
      "type": "function"
    },
    {
      "constant": false,
      "inputs": [
        {
          "name": "_aid",
          "type": "uint256"
        },
        {
          "name": "_receiver",
          "type": "address"
        }
      ],
      "name": "transferAsset",
      "outputs": [],
      "payable": false,
      "stateMutability": "nonpayable",
      "type": "function"
    },
    {
      "constant": false,
      "inputs": [
        {
          "name": "_aid",
          "type": "uint256"
        }
      ],
      "name": "acceptTransferredAsset",
      "outputs": [],
      "payable": false,
      "stateMutability": "nonpayable",
      "type": "function"
    },
    {
      "constant": false,
      "inputs": [],
      "name": "kill",
      "outputs": [],
      "payable": false,
      "stateMutability": "nonpayable",
      "type": "function"
    }
  ],
  "bytecode": "0x608060405234801561001057600080fd5b5060405160208061176f8339810180604052602081101561003057600080fd5b8101908080519060200190929190505050336000806101000a81548173ffffffffffffffffffffffffffffffffffffffff021916908373ffffffffffffffffffffffffffffffffffffffff16021790555080600160006101000a81548173ffffffffffffffffffffffffffffffffffffffff021916908373ffffffffffffffffffffffffffffffffffffffff1602179055505061169d806100d26000396000f3fe608060405260043610610099576000357c0100000000000000000000000000000000000000000000000000000000900463ffffffff1680630697377a1461009e5780631629614e146100f5578063337898041461013057806341c0e1b5146102195780635865324314610230578063afc581891461026b578063eac8f5b8146102a6578063eafe7a741461039a578063fa62ee8d146103c5575b600080fd5b3480156100aa57600080fd5b506100b3610420565b604051808273ffffffffffffffffffffffffffffffffffffffff1673ffffffffffffffffffffffffffffffffffffffff16815260200191505060405180910390f35b34801561010157600080fd5b5061012e6004803603602081101561011857600080fd5b8101908080359060200190929190505050610445565b005b34801561013c57600080fd5b506102036004803603604081101561015357600080fd5b810190808035906020019064010000000081111561017057600080fd5b82018360208201111561018257600080fd5b803590602001918460018302840111640100000000831117156101a457600080fd5b91908080601f016020809104026020016040519081016040528093929190818152602001838380828437600081840152601f19601f820116905080830192505050505050509192919290803560ff169060200190929190505050610677565b6040518082815260200191505060405180910390f35b34801561022557600080fd5b5061022e6109a9565b005b34801561023c57600080fd5b506102696004803603602081101561025357600080fd5b8101908080359060200190929190505050610a3e565b005b34801561027757600080fd5b506102a46004803603602081101561028e57600080fd5b8101908080359060200190929190505050610d1d565b005b3480156102b257600080fd5b506102df600480360360208110156102c957600080fd5b8101908080359060200190929190505050610f4f565b60405180806020018473ffffffffffffffffffffffffffffffffffffffff1673ffffffffffffffffffffffffffffffffffffffff1681526020018360ff1660ff168152602001828103825285818151815260200191508051906020019080838360005b8381101561035d578082015181840152602081019050610342565b50505050905090810190601f16801561038a5780820380516001836020036101000a031916815260200191505b5094505050505060405180910390f35b3480156103a657600080fd5b506103af611104565b6040518082815260200191505060405180910390f35b3480156103d157600080fd5b5061041e600480360360408110156103e857600080fd5b8101908080359060200190929190803573ffffffffffffffffffffffffffffffffffffffff16906020019092919050505061110a565b005b6000809054906101000a900473ffffffffffffffffffffffffffffffffffffffff1681565b806003600082815260200190815260200160002060000160009054906101000a900473ffffffffffffffffffffffffffffffffffffffff1673ffffffffffffffffffffffffffffffffffffffff163373ffffffffffffffffffffffffffffffffffffffff16141515610545576040517f08c379a00000000000000000000000000000000000000000000000000000000081526004018080602001828103825260328152602001807f596f75206d75737420626520616e206173736574206f776e657220746f20616381526020017f6365737320746869732066756e6374696f6e000000000000000000000000000081525060400191505060405180910390fd5b816003600082815260200190815260200160002060020160019054906101000a900460ff1615156105de576040517f08c379a00000000000000000000000000000000000000000000000000000000081526004018080602001828103825260188152602001807f5468697320617373657420646f65736e2774206578697374000000000000000081525060200191505060405180910390fd5b60016003600085815260200190815260200160002060020160026101000a81548160ff021916908315150217905550610672606060405190810160405280602d81526020017f61737365742d6c6f636b2d737563636573733a206173736574206c6f636b656481526020017f207375636365737366756c6c7900000000000000000000000000000000000000815250611521565b505050565b600033600160009054906101000a900473ffffffffffffffffffffffffffffffffffffffff1673ffffffffffffffffffffffffffffffffffffffff16634209fff1826040518263ffffffff167c0100000000000000000000000000000000000000000000000000000000028152600401808273ffffffffffffffffffffffffffffffffffffffff1673ffffffffffffffffffffffffffffffffffffffff16815260200191505060206040518083038186803b15801561073557600080fd5b505afa158015610749573d6000803e3d6000fd5b505050506040513d602081101561075f57600080fd5b8101908080519060200190929190505050151561080a576040517f08c379a000000000000000000000000000000000000000000000000000000000815260040180806020018281038252602a8152602001807f596f75206d7573742062652061207573657220746f206163636573732074686981526020017f732066756e6374696f6e0000000000000000000000000000000000000000000081525060400191505060405180910390fd5b600260008154600101919050819055915060a0604051908101604052803373ffffffffffffffffffffffffffffffffffffffff1681526020018581526020018460ff168152602001600115158152602001600015158152506003600084815260200190815260200160002060008201518160000160006101000a81548173ffffffffffffffffffffffffffffffffffffffff021916908373ffffffffffffffffffffffffffffffffffffffff16021790555060208201518160010190805190602001906108d89291906115cc565b5060408201518160020160006101000a81548160ff021916908360ff16021790555060608201518160020160016101000a81548160ff02191690831515021790555060808201518160020160026101000a81548160ff0219169083151502179055509050506109a2606060405190810160405280603281526020017f61737365742d6372656174696f6e2d737563636573733a20617373657420637281526020017f6561746564207375636365737366756c6c790000000000000000000000000000815250611521565b5092915050565b6000809054906101000a900473ffffffffffffffffffffffffffffffffffffffff1673ffffffffffffffffffffffffffffffffffffffff163373ffffffffffffffffffffffffffffffffffffffff16141515610a0457600080fd5b6000809054906101000a900473ffffffffffffffffffffffffffffffffffffffff1673ffffffffffffffffffffffffffffffffffffffff16ff5b8060006004600083815260200190815260200160002060009054906101000a900473ffffffffffffffffffffffffffffffffffffffff1673ffffffffffffffffffffffffffffffffffffffff1614151515610b27576040517f08c379a00000000000000000000000000000000000000000000000000000000081526004018080602001828103825260258152602001807f5468697320617373657420776173206e6576657220696e207472616e7366657281526020017f206d6f646500000000000000000000000000000000000000000000000000000081525060400191505060405180910390fd5b6004600083815260200190815260200160002060009054906101000a900473ffffffffffffffffffffffffffffffffffffffff1673ffffffffffffffffffffffffffffffffffffffff163373ffffffffffffffffffffffffffffffffffffffff16141515610c23576040517f08c379a00000000000000000000000000000000000000000000000000000000081526004018080602001828103825260268152602001807f4f6e6c79207468652072656365697665722063616e206163636570742074686581526020017f206173736574000000000000000000000000000000000000000000000000000081525060400191505060405180910390fd5b6004600083815260200190815260200160002060009054906101000a900473ffffffffffffffffffffffffffffffffffffffff166003600084815260200190815260200160002060000160006101000a81548173ffffffffffffffffffffffffffffffffffffffff021916908373ffffffffffffffffffffffffffffffffffffffff160217905550610cb482610d1d565b610d19606060405190810160405280603681526020017f61737365742d7472616e736665722d737563636573733a20617373657420747281526020017f616e73666572726564207375636365737366756c6c7900000000000000000000815250611521565b5050565b806003600082815260200190815260200160002060000160009054906101000a900473ffffffffffffffffffffffffffffffffffffffff1673ffffffffffffffffffffffffffffffffffffffff163373ffffffffffffffffffffffffffffffffffffffff16141515610e1d576040517f08c379a00000000000000000000000000000000000000000000000000000000081526004018080602001828103825260328152602001807f596f75206d75737420626520616e206173736574206f776e657220746f20616381526020017f6365737320746869732066756e6374696f6e000000000000000000000000000081525060400191505060405180910390fd5b816003600082815260200190815260200160002060020160019054906101000a900460ff161515610eb6576040517f08c379a00000000000000000000000000000000000000000000000000000000081526004018080602001828103825260188152602001807f5468697320617373657420646f65736e2774206578697374000000000000000081525060200191505060405180910390fd5b60006003600085815260200190815260200160002060020160026101000a81548160ff021916908315150217905550610f4a606060405190810160405280602f81526020017f61737365742d6c6f636b2d737563636573733a20617373657420756e6c6f636b81526020017f6564207375636365737366756c6c790000000000000000000000000000000000815250611521565b505050565b60606000806003600085815260200190815260200160002060020160029054906101000a900460ff16151515610fed576040517f08c379a000000000000000000000000000000000000000000000000000000000815260040180806020018281038252601e8152602001807f596f752063616e206e6f74207365652061206c6f636b6564206173736574000081525060200191505060405180910390fd5b600360008581526020019081526020016000206001018054600181600116156101000203166002900480601f0160208091040260200160405190810160405280929190818152602001828054600181600116156101000203166002900480156110975780601f1061106c57610100808354040283529160200191611097565b820191906000526020600020905b81548152906001019060200180831161107a57829003601f168201915b505050505092506003600085815260200190815260200160002060000160009054906101000a900473ffffffffffffffffffffffffffffffffffffffff1691506003600085815260200190815260200160002060020160009054906101000a900460ff1690509193909250565b60025481565b816003600082815260200190815260200160002060000160009054906101000a900473ffffffffffffffffffffffffffffffffffffffff1673ffffffffffffffffffffffffffffffffffffffff163373ffffffffffffffffffffffffffffffffffffffff1614151561120a576040517f08c379a00000000000000000000000000000000000000000000000000000000081526004018080602001828103825260328152602001807f596f75206d75737420626520616e206173736574206f776e657220746f20616381526020017f6365737320746869732066756e6374696f6e000000000000000000000000000081525060400191505060405180910390fd5b826003600082815260200190815260200160002060020160019054906101000a900460ff1615156112a3576040517f08c379a00000000000000000000000000000000000000000000000000000000081526004018080602001828103825260188152602001807f5468697320617373657420646f65736e2774206578697374000000000000000081525060200191505060405180910390fd5b82600160009054906101000a900473ffffffffffffffffffffffffffffffffffffffff1673ffffffffffffffffffffffffffffffffffffffff16634209fff1826040518263ffffffff167c0100000000000000000000000000000000000000000000000000000000028152600401808273ffffffffffffffffffffffffffffffffffffffff1673ffffffffffffffffffffffffffffffffffffffff16815260200191505060206040518083038186803b15801561135f57600080fd5b505afa158015611373573d6000803e3d6000fd5b505050506040513d602081101561138957600080fd5b81019080805190602001909291905050501515611434576040517f08c379a000000000000000000000000000000000000000000000000000000000815260040180806020018281038252602a8152602001807f596f75206d7573742062652061207573657220746f206163636573732074686981526020017f732066756e6374696f6e0000000000000000000000000000000000000000000081525060400191505060405180910390fd5b61143d85610445565b836004600087815260200190815260200160002060006101000a81548173ffffffffffffffffffffffffffffffffffffffff021916908373ffffffffffffffffffffffffffffffffffffffff16021790555061151a608060405190810160405280604181526020017f61737365742d7365742d696e2d7472616e736665722d737563636573733a206181526020017f737365742073657420696e207472616e73666572207375636365737366756c6c81526020017f7900000000000000000000000000000000000000000000000000000000000000815250611521565b5050505050565b7f73e8d12a7b1137bf3268a42d52951e3ffbdee6d9518c4747fdb0c20f16bf6fa4600182604051808360000b815260200180602001828103825283818151815260200191508051906020019080838360005b8381101561158e578082015181840152602081019050611573565b50505050905090810190601f1680156115bb5780820380516001836020036101000a031916815260200191505b50935050505060405180910390a150565b828054600181600116156101000203166002900490600052602060002090601f016020900481019282601f1061160d57805160ff191683800117855561163b565b8280016001018555821561163b579182015b8281111561163a57825182559160200191906001019061161f565b5b509050611648919061164c565b5090565b61166e91905b8082111561166a576000816000905550600101611652565b5090565b9056fea165627a7a7230582090954d6278e7a89ae58d055aac26b3044232bcc74576e364d049c6f04cb5cc8a0029",
  "source": "pragma solidity ^0.5.0;\nimport { Owned } from '../user/Owned.sol';\nimport { EmitsEvent } from '../_event/EmitsEvent.sol';\nimport { AssetStore } from '../_lib/AssetStore.sol';\nimport { UserManager } from '../user/UserManager.sol';\n\n/**\n * @title AssetManager\n * @dev contract that holds and performs CRUD operation on assets\n */\ncontract AssetManager is Owned, EmitsEvent \n{\n    //Track Users\n    UserManager um;\n\n    // track asset count and use as id\n    uint public assetCount;\n\n    // All the assets under our control\n    mapping(uint => AssetStore.Asset) assets;\n\n    // Map id of assets currently in transfer to receiver\n    mapping(uint => address) assetsInTransfer;\n\n    // ensure that caller owns asset\n    modifier isAssetOwner(uint assetId) {\n        require (msg.sender == assets[assetId].owner, \n            \"You must be an asset owner to access this function\"); _;\n    }\n\n    // ensure that the caller is a user\n    modifier isUser(address _u) {\n        require (um.isUser(_u), \"You must be a user to access this function\"); _;\n    }\n\n    // ensure that asset exists\n    modifier isValidAsset(uint assetId) {\n        require (assets[assetId].valid, \"This asset doesn't exist\"); _;\n    }\n\n    // ensure that the asset transfer request actually exists\n    modifier isValidTransfer(uint assetId) {\n        require (uint(assetsInTransfer[assetId]) != 0, \"This asset was never in transfer mode\"); _;\n    }\n\n    constructor(address _um) public {\n        um = UserManager(_um);\n    }\n\n    /**\n     * @dev allow users to create assets\n     * @param _name - name of asset\n     * @param _kind - type of asset\n     */\n    function createAsset(string memory _name, uint8 _kind ) public isUser(msg.sender)\n        returns (uint newIndex)\n    {\n        // get the next index for the assets store\n        newIndex = ++assetCount;\n        // store the asset\n        assets[newIndex] = AssetStore.Asset(msg.sender, _name, _kind, true, false);\n        emitActionSuccess(\"asset-creation-success: asset created successfully\");\n    }\n\n    /**\n     * Get asset by id\n     * @param _aid - any asset id\n     */\n    function getAsset(uint _aid) view public \n        returns (string memory _name, address _owner, uint8 _kind)\n    {\n        // throw error if asset is currently locked\n        require(!assets[_aid].locked, \"You can not see a locked asset\");\n\n        // return the values\n        _name = assets[_aid].name;\n        _owner = assets[_aid].owner;\n        _kind = assets[_aid].kind;\n    }\n\n    /**\n     * @dev lock asset to prevent it from being accessible\n     * @param _aid - any asset id\n     */\n    function lockAsset(uint _aid) public isAssetOwner(_aid) isValidAsset(_aid)\n    {\n        assets[_aid].locked = true;\n        emitActionSuccess(\"asset-lock-success: asset locked successfully\");\n    }\n\n    /**\n     * @dev lock asset to prevent it from being accessible\n     * @param _aid - any asset id\n     */\n    function unlockAsset(uint _aid) public isAssetOwner(_aid) isValidAsset(_aid)\n    {\n        assets[_aid].locked = false;\n        emitActionSuccess(\"asset-lock-success: asset unlocked successfully\");\n    }\n\n    /**\n     * @dev lock asset to prevent it from being accessible\n     * @param _aid - any asset id\n     * @param _receiver - any valid ethereum address\n     */\n    function transferAsset(uint _aid, address _receiver) public isAssetOwner(_aid)\n        isValidAsset(_aid) isUser(_receiver)\n    {\n        // lock asset first\n        lockAsset(_aid);\n        // add asset to list of assets in transfer\n        assetsInTransfer[_aid] = _receiver;\n        emitActionSuccess(\"asset-set-in-transfer-success: asset set in transfer successfully\");\n    }\n\n    /**\n     * @dev allow receiver to receive asset\n     * @param _aid - any asset id\n     */\n    function acceptTransferredAsset(uint _aid) public isValidTransfer(_aid)\n    {\n        // confirm that the person accepting was the person set to receive it\n        require(msg.sender == assetsInTransfer[_aid], \"Only the receiver can accept the asset\");\n        // receive the asset\n        assets[_aid].owner = assetsInTransfer[_aid];\n        unlockAsset(_aid);\n        emitActionSuccess(\"asset-transfer-success: asset transferred successfully\");\n    }\n\n    /**\n     * @dev kill this contract if something has gone wrong\n     */\n    function kill() public onlyMasterOwner() {\n        selfdestruct(master_owner);\n    }\n\n}",
  "sourcePath": "/home/cmdlucas/blockchain-dev/harchive-node/contracts/asset/AssetManager.sol",
  "compiler": {
    "name": "solc",
    "version": "0.5.0+commit.1d4f565a.Emscripten.clang"
  },
  "schemaVersion": "3.0.9",
  "updatedAt": "2019-09-10T04:41:20.375Z",
  "devdoc": {
    "details": "contract that holds and performs CRUD operation on assets",
    "methods": {
      "acceptTransferredAsset(uint256)": {
        "details": "allow receiver to receive asset",
        "params": {
          "_aid": "- any asset id"
        }
      },
      "createAsset(string,uint8)": {
        "details": "allow users to create assets",
        "params": {
          "_kind": "- type of asset",
          "_name": "- name of asset"
        }
      },
      "getAsset(uint256)": {
        "params": {
          "_aid": "- any asset id"
        }
      },
      "kill()": {
        "details": "kill this contract if something has gone wrong"
      },
      "lockAsset(uint256)": {
        "details": "lock asset to prevent it from being accessible",
        "params": {
          "_aid": "- any asset id"
        }
      },
      "transferAsset(uint256,address)": {
        "details": "lock asset to prevent it from being accessible",
        "params": {
          "_aid": "- any asset id",
          "_receiver": "- any valid ethereum address"
        }
      },
      "unlockAsset(uint256)": {
        "details": "lock asset to prevent it from being accessible",
        "params": {
          "_aid": "- any asset id"
        }
      }
    },
    "title": "AssetManager"
  },
  "userdoc": {
    "methods": {
      "getAsset(uint256)": {
        "notice": "Get asset by id"
      }
    }
  }
}