{
  "contractName": "UserManager",
  "abi": [
    {
      "constant": true,
      "inputs": [],
      "name": "master_owner",
      "outputs": [
        {
          "name": "",
          "type": "address"
        }
      ],
      "payable": false,
      "stateMutability": "view",
      "type": "function"
    },
    {
      "inputs": [],
      "payable": false,
      "stateMutability": "nonpayable",
      "type": "constructor"
    },
    {
      "anonymous": false,
      "inputs": [
        {
          "indexed": false,
          "name": "status",
          "type": "int8"
        },
        {
          "indexed": false,
          "name": "statement",
          "type": "string"
        }
      ],
      "name": "ActionDone",
      "type": "event"
    },
    {
      "constant": false,
      "inputs": [
        {
          "name": "_user",
          "type": "address"
        }
      ],
      "name": "addUser",
      "outputs": [
        {
          "name": "exists",
          "type": "bool"
        }
      ],
      "payable": false,
      "stateMutability": "nonpayable",
      "type": "function"
    },
    {
      "constant": true,
      "inputs": [
        {
          "name": "_user",
          "type": "address"
        }
      ],
      "name": "isUser",
      "outputs": [
        {
          "name": "exists",
          "type": "bool"
        }
      ],
      "payable": false,
      "stateMutability": "view",
      "type": "function"
    }
  ],
  "bytecode": "0x608060405234801561001057600080fd5b50336000806101000a81548173ffffffffffffffffffffffffffffffffffffffff021916908373ffffffffffffffffffffffffffffffffffffffff1602179055506103f9806100606000396000f3fe608060405260043610610057576000357c0100000000000000000000000000000000000000000000000000000000900463ffffffff1680630697377a1461005c5780634209fff1146100b3578063421b2d8b1461011c575b600080fd5b34801561006857600080fd5b50610071610185565b604051808273ffffffffffffffffffffffffffffffffffffffff1673ffffffffffffffffffffffffffffffffffffffff16815260200191505060405180910390f35b3480156100bf57600080fd5b50610102600480360360208110156100d657600080fd5b81019080803573ffffffffffffffffffffffffffffffffffffffff1690602001909291905050506101aa565b604051808215151515815260200191505060405180910390f35b34801561012857600080fd5b5061016b6004803603602081101561013f57600080fd5b81019080803573ffffffffffffffffffffffffffffffffffffffff169060200190929190505050610200565b604051808215151515815260200191505060405180910390f35b6000809054906101000a900473ffffffffffffffffffffffffffffffffffffffff1681565b6000600160008373ffffffffffffffffffffffffffffffffffffffff1673ffffffffffffffffffffffffffffffffffffffff16815260200190815260200160002060009054906101000a900460ff169050919050565b60008060009054906101000a900473ffffffffffffffffffffffffffffffffffffffff1673ffffffffffffffffffffffffffffffffffffffff163373ffffffffffffffffffffffffffffffffffffffff1614151561025d57600080fd5b60018060008473ffffffffffffffffffffffffffffffffffffffff1673ffffffffffffffffffffffffffffffffffffffff16815260200190815260200160002060006101000a81548160ff021916908315150217905550610319606060405190810160405280602581526020017f757365722d6d616e616765723a2055736572206164646564207375636365737381526020017f66756c6c79000000000000000000000000000000000000000000000000000000815250610322565b60019050919050565b7f73e8d12a7b1137bf3268a42d52951e3ffbdee6d9518c4747fdb0c20f16bf6fa4600182604051808360000b815260200180602001828103825283818151815260200191508051906020019080838360005b8381101561038f578082015181840152602081019050610374565b50505050905090810190601f1680156103bc5780820380516001836020036101000a031916815260200191505b50935050505060405180910390a15056fea165627a7a723058206ae7565d4d7a3586f6552631b5a533b256f989de5e5aa05ea2da9ef354a10d8d0029",
  "source": "pragma solidity ^0.5.0;\nimport { Owned } from './Owned.sol';\nimport { EmitsEvent } from '../_event/EmitsEvent.sol';\n\ncontract UserManager is Owned, EmitsEvent\n{\n    // all users on the platform\n    mapping (address => bool) users;\n\n    constructor() public {}\n\n    /**\n     * @dev Add users to the store\n     * @param _user - any valid ethereum address\n     */\n    function addUser(address _user) public onlyMasterOwner returns (bool exists)\n    {\n        users[_user] = true;\n        emitActionSuccess(\"user-manager: User added successfully\");\n        exists = true;\n    }\n\n    /**\n     * @dev confirm that user exists\n     * @param _user - any ethereum address\n     */\n    function isUser(address _user) view public returns (bool exists)\n    {\n        exists = users[_user];\n    }\n}",
  "sourcePath": "/home/cmdlucas/blockchain-dev/harchive-node/contracts/user/UserManager.sol",
  "compiler": {
    "name": "solc",
    "version": "0.5.0+commit.1d4f565a.Emscripten.clang"
  },
  "schemaVersion": "3.0.9",
  "updatedAt": "2019-09-10T04:41:20.380Z",
  "devdoc": {
    "methods": {
      "addUser(address)": {
        "details": "Add users to the store",
        "params": {
          "_user": "- any valid ethereum address"
        }
      },
      "isUser(address)": {
        "details": "confirm that user exists",
        "params": {
          "_user": "- any ethereum address"
        }
      }
    }
  },
  "userdoc": {
    "methods": {}
  }
}